{
  "_format": "hh-sol-artifact-1",
  "contractName": "Factory",
  "sourceName": "contracts/Factory.sol",
  "abi": [
    {
      "inputs": [
        {
          "internalType": "address",
          "name": "_governance",
          "type": "address"
        }
      ],
      "stateMutability": "nonpayable",
      "type": "constructor"
    },
    {
      "anonymous": false,
      "inputs": [
        {
          "indexed": true,
          "internalType": "address",
          "name": "deployer",
          "type": "address"
        },
        {
          "indexed": false,
          "internalType": "uint256",
          "name": "id",
          "type": "uint256"
        }
      ],
      "name": "ExposureTokenCreated",
      "type": "event"
    },
    {
      "inputs": [
        {
          "internalType": "address",
          "name": "",
          "type": "address"
        }
      ],
      "name": "accountExposureTokens",
      "outputs": [
        {
          "internalType": "uint256",
          "name": "",
          "type": "uint256"
        }
      ],
      "stateMutability": "view",
      "type": "function"
    },
    {
      "inputs": [
        {
          "internalType": "address",
          "name": "_creator",
          "type": "address"
        },
        {
          "internalType": "uint256",
          "name": "_exposureTokenId",
          "type": "uint256"
        }
      ],
      "name": "computeExposureTokenAddress",
      "outputs": [
        {
          "internalType": "address",
          "name": "instance",
          "type": "address"
        }
      ],
      "stateMutability": "view",
      "type": "function"
    },
    {
      "inputs": [
        {
          "internalType": "uint256",
          "name": "_endBlock",
          "type": "uint256"
        },
        {
          "internalType": "uint256",
          "name": "_goal",
          "type": "uint256"
        },
        {
          "internalType": "uint256",
          "name": "_floor",
          "type": "uint256"
        },
        {
          "internalType": "uint256",
          "name": "_initialBuyoutPrice",
          "type": "uint256"
        },
        {
          "internalType": "address[]",
          "name": "_initialTargets",
          "type": "address[]"
        },
        {
          "internalType": "bytes[]",
          "name": "_initialDatas",
          "type": "bytes[]"
        },
        {
          "internalType": "uint256[]",
          "name": "_initialEthTransfers",
          "type": "uint256[]"
        },
        {
          "internalType": "bytes32",
          "name": "_tokenName",
          "type": "bytes32"
        }
      ],
      "name": "createExposureToken",
      "outputs": [
        {
          "internalType": "address",
          "name": "exposureToken",
          "type": "address"
        }
      ],
      "stateMutability": "nonpayable",
      "type": "function"
    },
    {
      "inputs": [],
      "name": "escrow",
      "outputs": [
        {
          "internalType": "address",
          "name": "",
          "type": "address"
        }
      ],
      "stateMutability": "view",
      "type": "function"
    },
    {
      "inputs": [],
      "name": "exposureTokenCount",
      "outputs": [
        {
          "internalType": "uint256",
          "name": "",
          "type": "uint256"
        }
      ],
      "stateMutability": "view",
      "type": "function"
    },
    {
      "inputs": [
        {
          "internalType": "uint256",
          "name": "",
          "type": "uint256"
        }
      ],
      "name": "getExposureToken",
      "outputs": [
        {
          "internalType": "address",
          "name": "",
          "type": "address"
        }
      ],
      "stateMutability": "view",
      "type": "function"
    },
    {
      "inputs": [],
      "name": "governance",
      "outputs": [
        {
          "internalType": "address",
          "name": "",
          "type": "address"
        }
      ],
      "stateMutability": "view",
      "type": "function"
    },
    {
      "inputs": [],
      "name": "implementation",
      "outputs": [
        {
          "internalType": "address",
          "name": "",
          "type": "address"
        }
      ],
      "stateMutability": "view",
      "type": "function"
    },
    {
      "inputs": [],
      "name": "isPaused",
      "outputs": [
        {
          "internalType": "bool",
          "name": "",
          "type": "bool"
        }
      ],
      "stateMutability": "view",
      "type": "function"
    },
    {
      "inputs": [
        {
          "internalType": "address",
          "name": "_newEscrow",
          "type": "address"
        }
      ],
      "name": "setEscrow",
      "outputs": [
        {
          "internalType": "bool",
          "name": "",
          "type": "bool"
        }
      ],
      "stateMutability": "nonpayable",
      "type": "function"
    },
    {
      "inputs": [
        {
          "internalType": "address",
          "name": "_implementation",
          "type": "address"
        }
      ],
      "name": "setImplementation",
      "outputs": [
        {
          "internalType": "bool",
          "name": "",
          "type": "bool"
        }
      ],
      "stateMutability": "nonpayable",
      "type": "function"
    },
    {
      "inputs": [],
      "name": "togglePause",
      "outputs": [
        {
          "internalType": "bool",
          "name": "",
          "type": "bool"
        }
      ],
      "stateMutability": "nonpayable",
      "type": "function"
    }
  ],
  "bytecode": "0x60a06040523480156200001157600080fd5b5060405162001d0938038062001d0983398181016040528101906200003791906200008c565b8073ffffffffffffffffffffffffffffffffffffffff1660808173ffffffffffffffffffffffffffffffffffffffff1660601b815250505062000106565b6000815190506200008681620000ec565b92915050565b6000602082840312156200009f57600080fd5b6000620000af8482850162000075565b91505092915050565b6000620000c582620000cc565b9050919050565b600073ffffffffffffffffffffffffffffffffffffffff82169050919050565b620000f781620000b8565b81146200010357600080fd5b50565b60805160601c611bcf6200013a6000396000818161079b015281816108da015281816109b40152610a750152611bcf6000f3fe608060405234801561001057600080fd5b50600436106100b45760003560e01c8063ab3a3e6511610071578063ab3a3e65146101b5578063b187bd26146101d3578063c10c3546146101f1578063c4ae316814610221578063d784d4261461023f578063e2fdcc171461026f576100b4565b806304f7ffe4146100b95780630bed0c16146100e957806327b30dfd146101195780635aa6e675146101495780635c60da1b14610167578063a39dd3d014610185575b600080fd5b6100d360048036038101906100ce9190610f0e565b61028d565b6040516100e0919061162f565b60405180910390f35b61010360048036038101906100fe9190610f9c565b6102a5565b6040516101109190611439565b60405180910390f35b610133600480360381019061012e9190610fc5565b6102d8565b6040516101409190611439565b60405180910390f35b610151610799565b60405161015e9190611439565b60405180910390f35b61016f6107bd565b60405161017c9190611439565b60405180910390f35b61019f600480360381019061019a9190610f37565b6107e3565b6040516101ac9190611439565b60405180910390f35b6101bd6108bd565b6040516101ca919061162f565b60405180910390f35b6101db6108c3565b6040516101e89190611514565b60405180910390f35b61020b60048036038101906102069190610f0e565b6108d6565b6040516102189190611514565b60405180910390f35b6102296109b0565b6040516102369190611514565b60405180910390f35b61025960048036038101906102549190610f0e565b610a71565b6040516102669190611514565b60405180910390f35b610277610b4b565b6040516102849190611439565b60405180910390f35b60016020528060005260406000206000915090505481565b60006020528060005260406000206000915054906101000a900473ffffffffffffffffffffffffffffffffffffffff1681565b60006102e2610b71565b6001600560016101000a81548160ff02191690831515021790555060001515600560009054906101000a900460ff16151514610353576040517f08c379a000000000000000000000000000000000000000000000000000000000815260040161034a9061158f565b60405180910390fd5b43891015610396576040517f08c379a000000000000000000000000000000000000000000000000000000000815260040161038d906115af565b60405180910390fd5b600088116103d9576040517f08c379a00000000000000000000000000000000000000000000000000000000081526004016103d09061152f565b60405180910390fd5b6000871161041c576040517f08c379a00000000000000000000000000000000000000000000000000000000081526004016104139061152f565b60405180910390fd5b6000861161045f576040517f08c379a00000000000000000000000000000000000000000000000000000000081526004016104569061152f565b60405180910390fd5b83518551148015610471575082518451145b6104b0576040517f08c379a00000000000000000000000000000000000000000000000000000000081526004016104a7906115cf565b60405180910390fd5b60008551116104f4576040517f08c379a00000000000000000000000000000000000000000000000000000000081526004016104eb9061160f565b60405180910390fd5b6000600160003373ffffffffffffffffffffffffffffffffffffffff1673ffffffffffffffffffffffffffffffffffffffff1681526020019081526020016000205490506000338260405160200161054d92919061140d565b604051602081830303815290604052805190602001209050610591600360009054906101000a900473ffffffffffffffffffffffffffffffffffffffff1682610bc3565b92508273ffffffffffffffffffffffffffffffffffffffff16636cfaa153600260009054906101000a900473ffffffffffffffffffffffffffffffffffffffff16336004548f8f8f8f8f8f8f8f6040518c63ffffffff1660e01b81526004016106049b9a99989796959493929190611454565b602060405180830381600087803b15801561061e57600080fd5b505af1158015610632573d6000803e3d6000fd5b505050506040513d601f19601f820116820180604052508101906106569190610f73565b5082600080600454815260200190815260200160002060006101000a81548173ffffffffffffffffffffffffffffffffffffffff021916908373ffffffffffffffffffffffffffffffffffffffff1602179055506001600460008282546106bd91906117fc565b925050819055506001826106d191906117fc565b600160003373ffffffffffffffffffffffffffffffffffffffff1673ffffffffffffffffffffffffffffffffffffffff168152602001908152602001600020819055503373ffffffffffffffffffffffffffffffffffffffff167f517e5132fb33b6b6b69f3e48fb10d0f0914315bf842f42f782255f6412a2ad2e600160045461075b9190611852565b604051610768919061162f565b60405180910390a250506000600560016101000a81548160ff02191690831515021790555098975050505050505050565b7f000000000000000000000000000000000000000000000000000000000000000081565b600360009054906101000a900473ffffffffffffffffffffffffffffffffffffffff1681565b600080600360009054906101000a900473ffffffffffffffffffffffffffffffffffffffff16905060003090506000858560405160200161082592919061140d565b6040516020818303038152906040528051906020012090506040517f3d602d80600a3d3981f3363d3d373d3d3d363d7300000000000000000000000081528360601b60148201527f5af43d82803e903d91602b57fd5bf3ff0000000000000000000000000000000060288201528260601b603882015281604c82015260378120606c8201526055603782012094505050505092915050565b60045481565b600560009054906101000a900460ff1681565b60007f000000000000000000000000000000000000000000000000000000000000000073ffffffffffffffffffffffffffffffffffffffff163373ffffffffffffffffffffffffffffffffffffffff1614610966576040517f08c379a000000000000000000000000000000000000000000000000000000000815260040161095d9061154f565b60405180910390fd5b81600260006101000a81548173ffffffffffffffffffffffffffffffffffffffff021916908373ffffffffffffffffffffffffffffffffffffffff16021790555060019050919050565b60007f000000000000000000000000000000000000000000000000000000000000000073ffffffffffffffffffffffffffffffffffffffff163373ffffffffffffffffffffffffffffffffffffffff1614610a40576040517f08c379a0000000000000000000000000000000000000000000000000000000008152600401610a379061154f565b60405180910390fd5b600560009054906101000a900460ff1615600560006101000a81548160ff0219169083151502179055506001905090565b60007f000000000000000000000000000000000000000000000000000000000000000073ffffffffffffffffffffffffffffffffffffffff163373ffffffffffffffffffffffffffffffffffffffff1614610b01576040517f08c379a0000000000000000000000000000000000000000000000000000000008152600401610af89061154f565b60405180910390fd5b81600360006101000a81548173ffffffffffffffffffffffffffffffffffffffff021916908373ffffffffffffffffffffffffffffffffffffffff16021790555060019050919050565b600260009054906101000a900473ffffffffffffffffffffffffffffffffffffffff1681565b600560019054906101000a900460ff1615610bc1576040517f08c379a0000000000000000000000000000000000000000000000000000000008152600401610bb89061156f565b60405180910390fd5b565b6000808360601b90506040517f3d602d80600a3d3981f3363d3d373d3d3d363d7300000000000000000000000081528160148201527f5af43d82803e903d91602b57fd5bf300000000000000000000000000000000006028820152836037826000f5925050600073ffffffffffffffffffffffffffffffffffffffff168273ffffffffffffffffffffffffffffffffffffffff161415610c98576040517f08c379a0000000000000000000000000000000000000000000000000000000008152600401610c8f906115ef565b60405180910390fd5b5092915050565b6000610cb2610cad8461166f565b61164a565b90508083825260208201905082856020860282011115610cd157600080fd5b60005b85811015610d015781610ce78882610e12565b845260208401935060208301925050600181019050610cd4565b5050509392505050565b6000610d1e610d198461169b565b61164a565b9050808382526020820190508260005b85811015610d5e5781358501610d448882610ecf565b845260208401935060208301925050600181019050610d2e565b5050509392505050565b6000610d7b610d76846116c7565b61164a565b90508083825260208201905082856020860282011115610d9a57600080fd5b60005b85811015610dca5781610db08882610ef9565b845260208401935060208301925050600181019050610d9d565b5050509392505050565b6000610de7610de2846116f3565b61164a565b905082815260208101848484011115610dff57600080fd5b610e0a8482856118d8565b509392505050565b600081359050610e2181611b3d565b92915050565b600082601f830112610e3857600080fd5b8135610e48848260208601610c9f565b91505092915050565b600082601f830112610e6257600080fd5b8135610e72848260208601610d0b565b91505092915050565b600082601f830112610e8c57600080fd5b8135610e9c848260208601610d68565b91505092915050565b600081519050610eb481611b54565b92915050565b600081359050610ec981611b6b565b92915050565b600082601f830112610ee057600080fd5b8135610ef0848260208601610dd4565b91505092915050565b600081359050610f0881611b82565b92915050565b600060208284031215610f2057600080fd5b6000610f2e84828501610e12565b91505092915050565b60008060408385031215610f4a57600080fd5b6000610f5885828601610e12565b9250506020610f6985828601610ef9565b9150509250929050565b600060208284031215610f8557600080fd5b6000610f9384828501610ea5565b91505092915050565b600060208284031215610fae57600080fd5b6000610fbc84828501610ef9565b91505092915050565b600080600080600080600080610100898b031215610fe257600080fd5b6000610ff08b828c01610ef9565b98505060206110018b828c01610ef9565b97505060406110128b828c01610ef9565b96505060606110238b828c01610ef9565b955050608089013567ffffffffffffffff81111561104057600080fd5b61104c8b828c01610e27565b94505060a089013567ffffffffffffffff81111561106957600080fd5b6110758b828c01610e51565b93505060c089013567ffffffffffffffff81111561109257600080fd5b61109e8b828c01610e7b565b92505060e06110af8b828c01610eba565b9150509295985092959890939650565b60006110cb8383611103565b60208301905092915050565b60006110e38383611287565b905092915050565b60006110f783836113d8565b60208301905092915050565b61110c81611886565b82525050565b61111b81611886565b82525050565b61113261112d82611886565b61194b565b82525050565b600061114382611754565b61114d81856117a7565b935061115883611724565b8060005b8381101561118957815161117088826110bf565b975061117b83611780565b92505060018101905061115c565b5085935050505092915050565b60006111a18261175f565b6111ab81856117b8565b9350836020820285016111bd85611734565b8060005b858110156111f957848403895281516111da85826110d7565b94506111e58361178d565b925060208a019950506001810190506111c1565b50829750879550505050505092915050565b60006112168261176a565b61122081856117c9565b935061122b83611744565b8060005b8381101561125c57815161124388826110eb565b975061124e8361179a565b92505060018101905061122f565b5085935050505092915050565b61127281611898565b82525050565b611281816118a4565b82525050565b600061129282611775565b61129c81856117da565b93506112ac8185602086016118e7565b6112b5816119d7565b840191505092915050565b60006112cd6001836117eb565b91506112d8826119f5565b602082019050919050565b60006112f0600f836117eb565b91506112fb82611a1e565b602082019050919050565b60006113136002836117eb565b915061131e82611a47565b602082019050919050565b6000611336600e836117eb565b915061134182611a70565b602082019050919050565b60006113596001836117eb565b915061136482611a99565b602082019050919050565b600061137c6001836117eb565b915061138782611ac2565b602082019050919050565b600061139f6001836117eb565b91506113aa82611aeb565b602082019050919050565b60006113c26001836117eb565b91506113cd82611b14565b602082019050919050565b6113e1816118ce565b82525050565b6113f0816118ce565b82525050565b611407611402826118ce565b61196f565b82525050565b60006114198285611121565b60148201915061142982846113f6565b6020820191508190509392505050565b600060208201905061144e6000830184611112565b92915050565b60006101608201905061146a600083018e611112565b611477602083018d611112565b611484604083018c6113e7565b611491606083018b6113e7565b61149e608083018a6113e7565b6114ab60a08301896113e7565b6114b860c08301886113e7565b81810360e08301526114ca8187611138565b90508181036101008301526114df8186611196565b90508181036101208301526114f4818561120b565b9050611504610140830184611278565b9c9b505050505050505050505050565b60006020820190506115296000830184611269565b92915050565b60006020820190508181036000830152611548816112c0565b9050919050565b60006020820190508181036000830152611568816112e3565b9050919050565b6000602082019050818103600083015261158881611306565b9050919050565b600060208201905081810360008301526115a881611329565b9050919050565b600060208201905081810360008301526115c88161134c565b9050919050565b600060208201905081810360008301526115e88161136f565b9050919050565b6000602082019050818103600083015261160881611392565b9050919050565b60006020820190508181036000830152611628816113b5565b9050919050565b600060208201905061164460008301846113e7565b92915050565b6000611654611665565b9050611660828261191a565b919050565b6000604051905090565b600067ffffffffffffffff82111561168a576116896119a8565b5b602082029050602081019050919050565b600067ffffffffffffffff8211156116b6576116b56119a8565b5b602082029050602081019050919050565b600067ffffffffffffffff8211156116e2576116e16119a8565b5b602082029050602081019050919050565b600067ffffffffffffffff82111561170e5761170d6119a8565b5b611717826119d7565b9050602081019050919050565b6000819050602082019050919050565b6000819050602082019050919050565b6000819050602082019050919050565b600081519050919050565b600081519050919050565b600081519050919050565b600081519050919050565b6000602082019050919050565b6000602082019050919050565b6000602082019050919050565b600082825260208201905092915050565b600082825260208201905092915050565b600082825260208201905092915050565b600082825260208201905092915050565b600082825260208201905092915050565b6000611807826118ce565b9150611812836118ce565b9250827fffffffffffffffffffffffffffffffffffffffffffffffffffffffffffffffff0382111561184757611846611979565b5b828201905092915050565b600061185d826118ce565b9150611868836118ce565b92508282101561187b5761187a611979565b5b828203905092915050565b6000611891826118ae565b9050919050565b60008115159050919050565b6000819050919050565b600073ffffffffffffffffffffffffffffffffffffffff82169050919050565b6000819050919050565b82818337600083830152505050565b60005b838110156119055780820151818401526020810190506118ea565b83811115611914576000848401525b50505050565b611923826119d7565b810181811067ffffffffffffffff82111715611942576119416119a8565b5b80604052505050565b60006119568261195d565b9050919050565b6000611968826119e8565b9050919050565b6000819050919050565b7f4e487b7100000000000000000000000000000000000000000000000000000000600052601160045260246000fd5b7f4e487b7100000000000000000000000000000000000000000000000000000000600052604160045260246000fd5b6000601f19601f8301169050919050565b60008160601b9050919050565b7f3400000000000000000000000000000000000000000000000000000000000000600082015250565b7f6f6e6c7920676f7665726e616e63650000000000000000000000000000000000600082015250565b7f3234000000000000000000000000000000000000000000000000000000000000600082015250565b7f666163746f727920706175736564000000000000000000000000000000000000600082015250565b7f3200000000000000000000000000000000000000000000000000000000000000600082015250565b7f3500000000000000000000000000000000000000000000000000000000000000600082015250565b7f3900000000000000000000000000000000000000000000000000000000000000600082015250565b7f3600000000000000000000000000000000000000000000000000000000000000600082015250565b611b4681611886565b8114611b5157600080fd5b50565b611b5d81611898565b8114611b6857600080fd5b50565b611b74816118a4565b8114611b7f57600080fd5b50565b611b8b816118ce565b8114611b9657600080fd5b5056fea26469706673582212202a7b65311c739efca05522645936a77292429eb7d04a9f02a47003f401d9f4bc64736f6c63430008020033",
  "linkReferences": {},
  "deployedLinkReferences": {}
}